{
  "contractName": "DiceBattle",
  "abi": [
    {
      "inputs": [
        {
          "internalType": "contract Dice",
          "name": "diceAddress",
          "type": "address"
        }
      ],
      "stateMutability": "nonpayable",
      "type": "constructor"
    },
    {
      "anonymous": false,
      "inputs": [
        {
          "indexed": false,
          "internalType": "uint256",
          "name": "myDice",
          "type": "uint256"
        },
        {
          "indexed": false,
          "internalType": "uint256",
          "name": "enemyDice",
          "type": "uint256"
        }
      ],
      "name": "battleDraw",
      "type": "event"
    },
    {
      "anonymous": false,
      "inputs": [
        {
          "indexed": false,
          "internalType": "uint256",
          "name": "myDice",
          "type": "uint256"
        },
        {
          "indexed": false,
          "internalType": "uint256",
          "name": "enemyDice",
          "type": "uint256"
        }
      ],
      "name": "battlewin",
      "type": "event"
    },
    {
      "inputs": [
        {
          "internalType": "uint256",
          "name": "myDice",
          "type": "uint256"
        },
        {
          "internalType": "uint256",
          "name": "enemyDice",
          "type": "uint256"
        }
      ],
      "name": "battle",
      "outputs": [],
      "stateMutability": "nonpayable",
      "type": "function"
    },
    {
      "inputs": [
        {
          "internalType": "uint256",
          "name": "id",
          "type": "uint256"
        }
      ],
      "name": "getDiceOwner",
      "outputs": [
        {
          "internalType": "address",
          "name": "",
          "type": "address"
        }
      ],
      "stateMutability": "view",
      "type": "function",
      "constant": true
    },
    {
      "inputs": [
        {
          "internalType": "uint256",
          "name": "diceId",
          "type": "uint256"
        }
      ],
      "name": "getDiceNumber",
      "outputs": [
        {
          "internalType": "uint256",
          "name": "",
          "type": "uint256"
        }
      ],
      "stateMutability": "view",
      "type": "function",
      "constant": true
    }
  ],
  "bytecode": "0x60806040523480156200001157600080fd5b5060405162001369380380620013698339818101604052810190620000379190620000fc565b806000806101000a81548173ffffffffffffffffffffffffffffffffffffffff021916908373ffffffffffffffffffffffffffffffffffffffff160217905550506200012e565b600080fd5b600073ffffffffffffffffffffffffffffffffffffffff82169050919050565b6000620000b08262000083565b9050919050565b6000620000c482620000a3565b9050919050565b620000d681620000b7565b8114620000e257600080fd5b50565b600081519050620000f681620000cb565b92915050565b6000602082840312156200011557620001146200007e565b5b60006200012584828501620000e5565b91505092915050565b61122b806200013e6000396000f3fe608060405234801561001057600080fd5b50600436106100415760003560e01c80632a0c52211461004657806383d38e4014610062578063a98c5b7114610092575b600080fd5b610060600480360381019061005b9190610ff1565b6100c2565b005b61007c60048036038101906100779190611031565b610e6b565b604051610089919061109f565b60405180910390f35b6100ac60048036038101906100a79190611031565b610f0f565b6040516100b991906110c9565b60405180910390f35b3073ffffffffffffffffffffffffffffffffffffffff1660008054906101000a900473ffffffffffffffffffffffffffffffffffffffff1673ffffffffffffffffffffffffffffffffffffffff1663c41a360a846040518263ffffffff1660e01b815260040161013291906110c9565b602060405180830381865afa15801561014f573d6000803e3d6000fd5b505050506040513d601f19601f820116820180604052508101906101739190611110565b73ffffffffffffffffffffffffffffffffffffffff161461019357600080fd5b3073ffffffffffffffffffffffffffffffffffffffff1660008054906101000a900473ffffffffffffffffffffffffffffffffffffffff1673ffffffffffffffffffffffffffffffffffffffff1663c41a360a836040518263ffffffff1660e01b815260040161020391906110c9565b602060405180830381865afa158015610220573d6000803e3d6000fd5b505050506040513d601f19601f820116820180604052508101906102449190611110565b73ffffffffffffffffffffffffffffffffffffffff161461026457600080fd5b3373ffffffffffffffffffffffffffffffffffffffff1660008054906101000a900473ffffffffffffffffffffffffffffffffffffffff1673ffffffffffffffffffffffffffffffffffffffff1663f2d03fcf846040518263ffffffff1660e01b81526004016102d491906110c9565b602060405180830381865afa1580156102f1573d6000803e3d6000fd5b505050506040513d601f19601f820116820180604052508101906103159190611110565b73ffffffffffffffffffffffffffffffffffffffff161461033557600080fd5b60008054906101000a900473ffffffffffffffffffffffffffffffffffffffff1673ffffffffffffffffffffffffffffffffffffffff16631f7b4f30836040518263ffffffff1660e01b815260040161038e91906110c9565b600060405180830381600087803b1580156103a857600080fd5b505af11580156103bc573d6000803e3d6000fd5b5050505060008054906101000a900473ffffffffffffffffffffffffffffffffffffffff1673ffffffffffffffffffffffffffffffffffffffff16631e76dcdd836040518263ffffffff1660e01b815260040161041991906110c9565b600060405180830381600087803b15801561043357600080fd5b505af1158015610447573d6000803e3d6000fd5b5050505060008054906101000a900473ffffffffffffffffffffffffffffffffffffffff1673ffffffffffffffffffffffffffffffffffffffff16631f7b4f30826040518263ffffffff1660e01b81526004016104a491906110c9565b600060405180830381600087803b1580156104be57600080fd5b505af11580156104d2573d6000803e3d6000fd5b5050505060008054906101000a900473ffffffffffffffffffffffffffffffffffffffff1673ffffffffffffffffffffffffffffffffffffffff16631e76dcdd826040518263ffffffff1660e01b815260040161052f91906110c9565b600060405180830381600087803b15801561054957600080fd5b505af115801561055d573d6000803e3d6000fd5b5050505060008054906101000a900473ffffffffffffffffffffffffffffffffffffffff1673ffffffffffffffffffffffffffffffffffffffff1663a98c5b71826040518263ffffffff1660e01b81526004016105ba91906110c9565b602060405180830381865afa1580156105d7573d6000803e3d6000fd5b505050506040513d601f19601f820116820180604052508101906105fb9190611176565b60ff1660008054906101000a900473ffffffffffffffffffffffffffffffffffffffff1673ffffffffffffffffffffffffffffffffffffffff1663a98c5b71846040518263ffffffff1660e01b815260040161065791906110c9565b602060405180830381865afa158015610674573d6000803e3d6000fd5b505050506040513d601f19601f820116820180604052508101906106989190611176565b60ff1611156109275760008054906101000a900473ffffffffffffffffffffffffffffffffffffffff1673ffffffffffffffffffffffffffffffffffffffff1663b7760c8f8360008054906101000a900473ffffffffffffffffffffffffffffffffffffffff1673ffffffffffffffffffffffffffffffffffffffff1663f2d03fcf856040518263ffffffff1660e01b815260040161073791906110c9565b602060405180830381865afa158015610754573d6000803e3d6000fd5b505050506040513d601f19601f820116820180604052508101906107789190611110565b6040518363ffffffff1660e01b81526004016107959291906111a3565b600060405180830381600087803b1580156107af57600080fd5b505af11580156107c3573d6000803e3d6000fd5b5050505060008054906101000a900473ffffffffffffffffffffffffffffffffffffffff1673ffffffffffffffffffffffffffffffffffffffff1663b7760c8f8260008054906101000a900473ffffffffffffffffffffffffffffffffffffffff1673ffffffffffffffffffffffffffffffffffffffff1663f2d03fcf856040518263ffffffff1660e01b815260040161085d91906110c9565b602060405180830381865afa15801561087a573d6000803e3d6000fd5b505050506040513d601f19601f8201168201806040525081019061089e9190611110565b6040518363ffffffff1660e01b81526004016108bb9291906111a3565b600060405180830381600087803b1580156108d557600080fd5b505af11580156108e9573d6000803e3d6000fd5b505050507fc2267b77fc5e8f75164e18937156243c0c617346d1a70e2cd9c804f14872bee5828260405161091e9291906111cc565b60405180910390a15b60008054906101000a900473ffffffffffffffffffffffffffffffffffffffff1673ffffffffffffffffffffffffffffffffffffffff1663a98c5b71826040518263ffffffff1660e01b815260040161098091906110c9565b602060405180830381865afa15801561099d573d6000803e3d6000fd5b505050506040513d601f19601f820116820180604052508101906109c19190611176565b60ff1660008054906101000a900473ffffffffffffffffffffffffffffffffffffffff1673ffffffffffffffffffffffffffffffffffffffff1663a98c5b71846040518263ffffffff1660e01b8152600401610a1d91906110c9565b602060405180830381865afa158015610a3a573d6000803e3d6000fd5b505050506040513d601f19601f82011682018060405250810190610a5e9190611176565b60ff161015610ced5760008054906101000a900473ffffffffffffffffffffffffffffffffffffffff1673ffffffffffffffffffffffffffffffffffffffff1663b7760c8f8260008054906101000a900473ffffffffffffffffffffffffffffffffffffffff1673ffffffffffffffffffffffffffffffffffffffff1663f2d03fcf866040518263ffffffff1660e01b8152600401610afd91906110c9565b602060405180830381865afa158015610b1a573d6000803e3d6000fd5b505050506040513d601f19601f82011682018060405250810190610b3e9190611110565b6040518363ffffffff1660e01b8152600401610b5b9291906111a3565b600060405180830381600087803b158015610b7557600080fd5b505af1158015610b89573d6000803e3d6000fd5b5050505060008054906101000a900473ffffffffffffffffffffffffffffffffffffffff1673ffffffffffffffffffffffffffffffffffffffff1663b7760c8f8360008054906101000a900473ffffffffffffffffffffffffffffffffffffffff1673ffffffffffffffffffffffffffffffffffffffff1663f2d03fcf866040518263ffffffff1660e01b8152600401610c2391906110c9565b602060405180830381865afa158015610c40573d6000803e3d6000fd5b505050506040513d601f19601f82011682018060405250810190610c649190611110565b6040518363ffffffff1660e01b8152600401610c819291906111a3565b600060405180830381600087803b158015610c9b57600080fd5b505af1158015610caf573d6000803e3d6000fd5b505050507fc2267b77fc5e8f75164e18937156243c0c617346d1a70e2cd9c804f14872bee58183604051610ce49291906111cc565b60405180910390a15b60008054906101000a900473ffffffffffffffffffffffffffffffffffffffff1673ffffffffffffffffffffffffffffffffffffffff1663a98c5b71826040518263ffffffff1660e01b8152600401610d4691906110c9565b602060405180830381865afa158015610d63573d6000803e3d6000fd5b505050506040513d601f19601f82011682018060405250810190610d879190611176565b60ff1660008054906101000a900473ffffffffffffffffffffffffffffffffffffffff1673ffffffffffffffffffffffffffffffffffffffff1663a98c5b71846040518263ffffffff1660e01b8152600401610de391906110c9565b602060405180830381865afa158015610e00573d6000803e3d6000fd5b505050506040513d601f19601f82011682018060405250810190610e249190611176565b60ff161415610e67577ff9f3f9f974abd92da34cad64679308739d89b21de31bbd9bcb8de3fad1a8227e8282604051610e5e9291906111cc565b60405180910390a15b5050565b60008060009054906101000a900473ffffffffffffffffffffffffffffffffffffffff1673ffffffffffffffffffffffffffffffffffffffff1663f2d03fcf836040518263ffffffff1660e01b8152600401610ec791906110c9565b602060405180830381865afa158015610ee4573d6000803e3d6000fd5b505050506040513d601f19601f82011682018060405250810190610f089190611110565b9050919050565b60008060009054906101000a900473ffffffffffffffffffffffffffffffffffffffff1673ffffffffffffffffffffffffffffffffffffffff1663a98c5b71836040518263ffffffff1660e01b8152600401610f6b91906110c9565b602060405180830381865afa158015610f88573d6000803e3d6000fd5b505050506040513d601f19601f82011682018060405250810190610fac9190611176565b60ff169050919050565b600080fd5b6000819050919050565b610fce81610fbb565b8114610fd957600080fd5b50565b600081359050610feb81610fc5565b92915050565b6000806040838503121561100857611007610fb6565b5b600061101685828601610fdc565b925050602061102785828601610fdc565b9150509250929050565b60006020828403121561104757611046610fb6565b5b600061105584828501610fdc565b91505092915050565b600073ffffffffffffffffffffffffffffffffffffffff82169050919050565b60006110898261105e565b9050919050565b6110998161107e565b82525050565b60006020820190506110b46000830184611090565b92915050565b6110c381610fbb565b82525050565b60006020820190506110de60008301846110ba565b92915050565b6110ed8161107e565b81146110f857600080fd5b50565b60008151905061110a816110e4565b92915050565b60006020828403121561112657611125610fb6565b5b6000611134848285016110fb565b91505092915050565b600060ff82169050919050565b6111538161113d565b811461115e57600080fd5b50565b6000815190506111708161114a565b92915050565b60006020828403121561118c5761118b610fb6565b5b600061119a84828501611161565b91505092915050565b60006040820190506111b860008301856110ba565b6111c56020830184611090565b9392505050565b60006040820190506111e160008301856110ba565b6111ee60208301846110ba565b939250505056fea2646970667358221220b8a5b6de8b77f5d65959c1002835056f1aea2e70bf6b504bd630f957698defdd64736f6c634300080c0033",
  "immutableReferences": {},
  "source": "// SPDX-License-Identifier: MIT\npragma solidity ^0.8.0;\nimport \"./Dice.sol\";\n\ncontract DiceBattle {\n\n    Dice diceContract;\n\n    constructor(Dice diceAddress) {\n        diceContract = diceAddress;\n    }\n\n    event battlewin(uint256 myDice,uint256 enemyDice);\n    event battleDraw(uint256 myDice,uint256 enemyDice);\n\n    function battle(uint256 myDice, uint256 enemyDice) public {\n        require(diceContract.getOwner(myDice) == address(this));\n        require(diceContract.getOwner(enemyDice) == address(this));\n        require(diceContract.getPrevOwner(myDice) == msg.sender);\n\n        diceContract.roll(myDice);\n        diceContract.stopRoll(myDice);\n        diceContract.roll(enemyDice);\n        diceContract.stopRoll(enemyDice);\n\n      if ( diceContract.getDiceNumber(myDice) > diceContract.getDiceNumber(enemyDice) ) {\n          diceContract.transfer(myDice,diceContract.getPrevOwner(enemyDice)); //last owner before sending to DiceBattle\n          diceContract.transfer(enemyDice,diceContract.getPrevOwner(enemyDice));\n          emit battlewin(myDice,enemyDice);\n      }\n     if ( diceContract.getDiceNumber(myDice) < diceContract.getDiceNumber(enemyDice) ) {\n          diceContract.transfer(enemyDice,diceContract.getPrevOwner(myDice)); //last owner before sending to DiceBattle\n          diceContract.transfer(myDice,diceContract.getPrevOwner(myDice));\n          emit battlewin(enemyDice,myDice);\n      }\n      if ( diceContract.getDiceNumber(myDice) == diceContract.getDiceNumber(enemyDice) ) {\n          emit battleDraw(myDice,enemyDice);\n      }\n    }\n\n    function getDiceOwner(uint256 id) public view  returns (address){\n        return diceContract.getPrevOwner(id);\n    }\n\n    function getDiceNumber (uint256 diceId) public view returns (uint256) {\n        return diceContract.getDiceNumber(diceId);\n    }\n\n}\n",
  "sourcePath": "C:\\Users\\dell\\Desktop\\lab4\\contracts\\DiceBattle.sol",
  "compiler": {
    "name": "solc",
    "version": "0.8.12+commit.f00d7308.Emscripten.clang"
  },
  "schemaVersion": "3.4.6",
  "updatedAt": "2022-03-28T13:45:04.455Z",
  "networkType": "ethereum",
  "devdoc": {
    "kind": "dev",
    "methods": {},
    "version": 1
  },
  "userdoc": {
    "kind": "user",
    "methods": {},
    "version": 1
  }
}