{
  "contractName": "Dice",
  "abi": [
    {
      "anonymous": false,
      "inputs": [
        {
          "indexed": false,
          "internalType": "uint256",
          "name": "diceId",
          "type": "uint256"
        }
      ],
      "name": "luckytimesEvent",
      "type": "event"
    },
    {
      "anonymous": false,
      "inputs": [
        {
          "indexed": false,
          "internalType": "uint256",
          "name": "diceId",
          "type": "uint256"
        },
        {
          "indexed": false,
          "internalType": "uint8",
          "name": "newNumber",
          "type": "uint8"
        }
      ],
      "name": "rolled",
      "type": "event"
    },
    {
      "anonymous": false,
      "inputs": [
        {
          "indexed": false,
          "internalType": "uint256",
          "name": "diceId",
          "type": "uint256"
        }
      ],
      "name": "rolling",
      "type": "event"
    },
    {
      "inputs": [
        {
          "internalType": "uint256",
          "name": "",
          "type": "uint256"
        }
      ],
      "name": "dices",
      "outputs": [
        {
          "internalType": "uint8",
          "name": "numberOfSides",
          "type": "uint8"
        },
        {
          "internalType": "uint8",
          "name": "color",
          "type": "uint8"
        },
        {
          "internalType": "uint8",
          "name": "currentNumber",
          "type": "uint8"
        },
        {
          "internalType": "enum Dice.diceState",
          "name": "state",
          "type": "uint8"
        },
        {
          "internalType": "uint256",
          "name": "creationValue",
          "type": "uint256"
        },
        {
          "internalType": "uint256",
          "name": "luckytimes",
          "type": "uint256"
        },
        {
          "internalType": "address",
          "name": "owner",
          "type": "address"
        },
        {
          "internalType": "address",
          "name": "prevOwner",
          "type": "address"
        }
      ],
      "stateMutability": "view",
      "type": "function",
      "constant": true
    },
    {
      "inputs": [],
      "name": "numDices",
      "outputs": [
        {
          "internalType": "uint256",
          "name": "",
          "type": "uint256"
        }
      ],
      "stateMutability": "view",
      "type": "function",
      "constant": true
    },
    {
      "inputs": [
        {
          "internalType": "uint8",
          "name": "numberOfSides",
          "type": "uint8"
        },
        {
          "internalType": "uint8",
          "name": "color",
          "type": "uint8"
        }
      ],
      "name": "add",
      "outputs": [
        {
          "internalType": "uint256",
          "name": "",
          "type": "uint256"
        }
      ],
      "stateMutability": "payable",
      "type": "function",
      "payable": true
    },
    {
      "inputs": [
        {
          "internalType": "uint256",
          "name": "diceId",
          "type": "uint256"
        }
      ],
      "name": "roll",
      "outputs": [],
      "stateMutability": "nonpayable",
      "type": "function"
    },
    {
      "inputs": [
        {
          "internalType": "uint256",
          "name": "diceId",
          "type": "uint256"
        }
      ],
      "name": "stopRoll",
      "outputs": [],
      "stateMutability": "nonpayable",
      "type": "function"
    },
    {
      "inputs": [
        {
          "internalType": "uint256",
          "name": "diceId",
          "type": "uint256"
        },
        {
          "internalType": "address",
          "name": "newOwner",
          "type": "address"
        }
      ],
      "name": "transfer",
      "outputs": [],
      "stateMutability": "nonpayable",
      "type": "function"
    },
    {
      "inputs": [
        {
          "internalType": "uint256",
          "name": "diceId",
          "type": "uint256"
        }
      ],
      "name": "getDiceSides",
      "outputs": [
        {
          "internalType": "uint8",
          "name": "",
          "type": "uint8"
        }
      ],
      "stateMutability": "view",
      "type": "function",
      "constant": true
    },
    {
      "inputs": [
        {
          "internalType": "uint256",
          "name": "diceId",
          "type": "uint256"
        }
      ],
      "name": "getDiceNumber",
      "outputs": [
        {
          "internalType": "uint8",
          "name": "",
          "type": "uint8"
        }
      ],
      "stateMutability": "view",
      "type": "function",
      "constant": true
    },
    {
      "inputs": [
        {
          "internalType": "uint256",
          "name": "diceId",
          "type": "uint256"
        }
      ],
      "name": "getDiceValue",
      "outputs": [
        {
          "internalType": "uint256",
          "name": "",
          "type": "uint256"
        }
      ],
      "stateMutability": "view",
      "type": "function",
      "constant": true
    },
    {
      "inputs": [
        {
          "internalType": "uint256",
          "name": "diceId",
          "type": "uint256"
        }
      ],
      "name": "getOwner",
      "outputs": [
        {
          "internalType": "address",
          "name": "",
          "type": "address"
        }
      ],
      "stateMutability": "view",
      "type": "function",
      "constant": true
    },
    {
      "inputs": [
        {
          "internalType": "uint256",
          "name": "diceId",
          "type": "uint256"
        }
      ],
      "name": "getPrevOwner",
      "outputs": [
        {
          "internalType": "address",
          "name": "",
          "type": "address"
        }
      ],
      "stateMutability": "view",
      "type": "function",
      "constant": true
    },
    {
      "inputs": [
        {
          "internalType": "uint256",
          "name": "diceId",
          "type": "uint256"
        }
      ],
      "name": "getLuckyTimes",
      "outputs": [
        {
          "internalType": "uint256",
          "name": "",
          "type": "uint256"
        }
      ],
      "stateMutability": "view",
      "type": "function",
      "constant": true
    },
    {
      "inputs": [
        {
          "internalType": "uint256",
          "name": "diceId",
          "type": "uint256"
        }
      ],
      "name": "destroyDice",
      "outputs": [],
      "stateMutability": "payable",
      "type": "function",
      "payable": true
    }
  ],
  "bytecode": "0x60806040526000805534801561001457600080fd5b50611438806100246000396000f3fe6080604052600436106100c25760003560e01c8063a98c5b711161007f578063c41a360a11610059578063c41a360a14610289578063de2271fe146102c6578063ee2fa39c146102f1578063f2d03fcf1461032e576100c2565b8063a98c5b71146101f3578063b7760c8f14610230578063bb4e3f4d14610259576100c2565b80631e76dcdd146100c75780631f7b4f30146100f057806329265db0146101195780638c8f53a414610135578063912475ba14610172578063a819604c146101b6575b600080fd5b3480156100d357600080fd5b506100ee60048036038101906100e99190610ec0565b61036b565b005b3480156100fc57600080fd5b5061011760048036038101906101129190610ec0565b6105a6565b005b610133600480360381019061012e9190610ec0565b6106ce565b005b34801561014157600080fd5b5061015c60048036038101906101579190610ec0565b610878565b6040516101699190610efc565b60405180910390f35b34801561017e57600080fd5b5061019960048036038101906101949190610ec0565b6108a8565b6040516101ad989796959493929190610feb565b60405180910390f35b3480156101c257600080fd5b506101dd60048036038101906101d89190610ec0565b610964565b6040516101ea9190610efc565b60405180910390f35b3480156101ff57600080fd5b5061021a60048036038101906102159190610ec0565b610994565b6040516102279190611069565b60405180910390f35b34801561023c57600080fd5b50610257600480360381019061025291906110b0565b6109d1565b005b610273600480360381019061026e919061111c565b610b35565b6040516102809190610efc565b60405180910390f35b34801561029557600080fd5b506102b060048036038101906102ab9190610ec0565b610da2565b6040516102bd919061115c565b60405180910390f35b3480156102d257600080fd5b506102db610df2565b6040516102e89190610efc565b60405180910390f35b3480156102fd57600080fd5b5061031860048036038101906103139190610ec0565b610df8565b6040516103259190611069565b60405180910390f35b34801561033a57600080fd5b5061035560048036038101906103509190610ec0565b610e35565b604051610362919061115c565b60405180910390f35b803373ffffffffffffffffffffffffffffffffffffffff166001600083815260200190815260200160002060030160009054906101000a900473ffffffffffffffffffffffffffffffffffffffff1673ffffffffffffffffffffffffffffffffffffffff16146103da57600080fd5b8160005481106103e957600080fd5b60006001600085815260200190815260200160002060000160036101000a81548160ff0219169083600181111561042357610422610f33565b5b02179055506000600180600086815260200190815260200160002060000160009054906101000a900460ff1660ff1660018661045f91906111a6565b4261046a91906111fc565b6104749190611285565b61047e91906112b6565b9050806001600086815260200190815260200160002060000160026101000a81548160ff021916908360ff1602179055506001600085815260200190815260200160002060000160009054906101000a900460ff1660ff166001600086815260200190815260200160002060000160029054906101000a900460ff1660ff1614156105675760016000858152602001908152602001600020600201600081548092919061052a906112ed565b91905055507f2352c307370c87494ff4d210aed715fb1369dd065db4eb1de29183e96c2af4ec8460405161055e9190610efc565b60405180910390a15b7ffca7e5ead94c99a33f4db0e5e7ed5266f833f73d27b83852ab0429662c60f5bf8482604051610598929190611336565b60405180910390a150505050565b803373ffffffffffffffffffffffffffffffffffffffff166001600083815260200190815260200160002060030160009054906101000a900473ffffffffffffffffffffffffffffffffffffffff1673ffffffffffffffffffffffffffffffffffffffff161461061557600080fd5b81600054811061062457600080fd5b600180600085815260200190815260200160002060000160036101000a81548160ff0219169083600181111561065d5761065c610f33565b5b021790555060006001600085815260200190815260200160002060000160026101000a81548160ff021916908360ff1602179055507f168812357336ee7b54afff4280d17ba364831e5c2d0eb5a3fa2d2634e5e77a86836040516106c19190610efc565b60405180910390a1505050565b803373ffffffffffffffffffffffffffffffffffffffff166001600083815260200190815260200160002060030160009054906101000a900473ffffffffffffffffffffffffffffffffffffffff1673ffffffffffffffffffffffffffffffffffffffff161461073d57600080fd5b81600054811061074c57600080fd5b60006001600085815260200190815260200160002060010154905060016000858152602001908152602001600020600080820160006101000a81549060ff02191690556000820160016101000a81549060ff02191690556000820160026101000a81549060ff02191690556000820160036101000a81549060ff0219169055600182016000905560028201600090556003820160006101000a81549073ffffffffffffffffffffffffffffffffffffffff02191690556004820160006101000a81549073ffffffffffffffffffffffffffffffffffffffff021916905550503373ffffffffffffffffffffffffffffffffffffffff166108fc829081150290604051600060405180830381858888f19350505050158015610871573d6000803e3d6000fd5b5050505050565b600081600054811061088957600080fd5b6001600084815260200190815260200160002060020154915050919050565b60016020528060005260406000206000915090508060000160009054906101000a900460ff16908060000160019054906101000a900460ff16908060000160029054906101000a900460ff16908060000160039054906101000a900460ff16908060010154908060020154908060030160009054906101000a900473ffffffffffffffffffffffffffffffffffffffff16908060040160009054906101000a900473ffffffffffffffffffffffffffffffffffffffff16905088565b600081600054811061097557600080fd5b6001600084815260200190815260200160002060010154915050919050565b60008160005481106109a557600080fd5b6001600084815260200190815260200160002060000160029054906101000a900460ff16915050919050565b813373ffffffffffffffffffffffffffffffffffffffff166001600083815260200190815260200160002060030160009054906101000a900473ffffffffffffffffffffffffffffffffffffffff1673ffffffffffffffffffffffffffffffffffffffff1614610a4057600080fd5b826000548110610a4f57600080fd5b6001600085815260200190815260200160002060030160009054906101000a900473ffffffffffffffffffffffffffffffffffffffff166001600086815260200190815260200160002060040160006101000a81548173ffffffffffffffffffffffffffffffffffffffff021916908373ffffffffffffffffffffffffffffffffffffffff160217905550826001600086815260200190815260200160002060030160006101000a81548173ffffffffffffffffffffffffffffffffffffffff021916908373ffffffffffffffffffffffffffffffffffffffff16021790555050505050565b6000808360ff1611610b4657600080fd5b662386f26fc100003411610b8f576040517f08c379a0000000000000000000000000000000000000000000000000000000008152600401610b86906113e2565b60405180910390fd5b60006040518061010001604052808560ff1681526020018460ff16815260200160018660ff1642610bc09190611285565b610bca91906112b6565b60ff16815260200160006001811115610be657610be5610f33565b5b8152602001348152602001600081526020013373ffffffffffffffffffffffffffffffffffffffff168152602001600073ffffffffffffffffffffffffffffffffffffffff1681525090506000806000815480929190610c45906112ed565b919050559050816001600083815260200190815260200160002060008201518160000160006101000a81548160ff021916908360ff16021790555060208201518160000160016101000a81548160ff021916908360ff16021790555060408201518160000160026101000a81548160ff021916908360ff16021790555060608201518160000160036101000a81548160ff02191690836001811115610ced57610cec610f33565b5b02179055506080820151816001015560a0820151816002015560c08201518160030160006101000a81548173ffffffffffffffffffffffffffffffffffffffff021916908373ffffffffffffffffffffffffffffffffffffffff16021790555060e08201518160040160006101000a81548173ffffffffffffffffffffffffffffffffffffffff021916908373ffffffffffffffffffffffffffffffffffffffff160217905550905050809250505092915050565b6000816000548110610db357600080fd5b6001600084815260200190815260200160002060030160009054906101000a900473ffffffffffffffffffffffffffffffffffffffff16915050919050565b60005481565b6000816000548110610e0957600080fd5b6001600084815260200190815260200160002060000160009054906101000a900460ff16915050919050565b6000816000548110610e4657600080fd5b6001600084815260200190815260200160002060040160009054906101000a900473ffffffffffffffffffffffffffffffffffffffff16915050919050565b600080fd5b6000819050919050565b610e9d81610e8a565b8114610ea857600080fd5b50565b600081359050610eba81610e94565b92915050565b600060208284031215610ed657610ed5610e85565b5b6000610ee484828501610eab565b91505092915050565b610ef681610e8a565b82525050565b6000602082019050610f116000830184610eed565b92915050565b600060ff82169050919050565b610f2d81610f17565b82525050565b7f4e487b7100000000000000000000000000000000000000000000000000000000600052602160045260246000fd5b60028110610f7357610f72610f33565b5b50565b6000819050610f8482610f62565b919050565b6000610f9482610f76565b9050919050565b610fa481610f89565b82525050565b600073ffffffffffffffffffffffffffffffffffffffff82169050919050565b6000610fd582610faa565b9050919050565b610fe581610fca565b82525050565b600061010082019050611001600083018b610f24565b61100e602083018a610f24565b61101b6040830189610f24565b6110286060830188610f9b565b6110356080830187610eed565b61104260a0830186610eed565b61104f60c0830185610fdc565b61105c60e0830184610fdc565b9998505050505050505050565b600060208201905061107e6000830184610f24565b92915050565b61108d81610fca565b811461109857600080fd5b50565b6000813590506110aa81611084565b92915050565b600080604083850312156110c7576110c6610e85565b5b60006110d585828601610eab565b92505060206110e68582860161109b565b9150509250929050565b6110f981610f17565b811461110457600080fd5b50565b600081359050611116816110f0565b92915050565b6000806040838503121561113357611132610e85565b5b600061114185828601611107565b925050602061115285828601611107565b9150509250929050565b60006020820190506111716000830184610fdc565b92915050565b7f4e487b7100000000000000000000000000000000000000000000000000000000600052601160045260246000fd5b60006111b182610e8a565b91506111bc83610e8a565b9250827fffffffffffffffffffffffffffffffffffffffffffffffffffffffffffffffff038211156111f1576111f0611177565b5b828201905092915050565b600061120782610e8a565b915061121283610e8a565b9250817fffffffffffffffffffffffffffffffffffffffffffffffffffffffffffffffff048311821515161561124b5761124a611177565b5b828202905092915050565b7f4e487b7100000000000000000000000000000000000000000000000000000000600052601260045260246000fd5b600061129082610e8a565b915061129b83610e8a565b9250826112ab576112aa611256565b5b828206905092915050565b60006112c182610f17565b91506112cc83610f17565b92508260ff038211156112e2576112e1611177565b5b828201905092915050565b60006112f882610e8a565b91507fffffffffffffffffffffffffffffffffffffffffffffffffffffffffffffffff82141561132b5761132a611177565b5b600182019050919050565b600060408201905061134b6000830185610eed565b6113586020830184610f24565b9392505050565b600082825260208201905092915050565b7f6174206c6561737420302e303120455448206973206e656564656420746f207360008201527f7061776e2061206e657720646963650000000000000000000000000000000000602082015250565b60006113cc602f8361135f565b91506113d782611370565b604082019050919050565b600060208201905081810360008301526113fb816113bf565b905091905056fea26469706673582212205546d7fd9716b6f58d951644abb443f4bcd439b8a6767460e0bf57105f01cfa564736f6c634300080c0033",
  "immutableReferences": {},
  "source": "// SPDX-License-Identifier: MIT\npragma solidity ^0.8.0;\n\ncontract Dice {\n\n    enum diceState { stationary, rolling }\n\n    struct dice {\n        uint8 numberOfSides;\n        uint8 color;\n        uint8 currentNumber;\n        diceState state;\n        uint256 creationValue; // amount given to smart contract in ETH when dice is created\n        uint256 luckytimes;\n        address owner;\n        address prevOwner;\n    }\n\n    event rolling (uint256 diceId);\n    event rolled (uint256 diceId, uint8 newNumber);\n    event luckytimesEvent(uint256 diceId);\n\n    uint256 public numDices = 0;\n    mapping(uint256 => dice) public dices;\n\n\n    //function to create a new dice, and add to 'dices' map. requires at least 0.01ETH to create\n    function add(\n        uint8 numberOfSides,\n        uint8 color\n    ) public payable returns(uint256) {\n        require(numberOfSides > 0);\n        require(msg.value > 0.01 ether, \"at least 0.01 ETH is needed to spawn a new dice\");\n\n        //new dice object\n        dice memory newDice = dice(\n            numberOfSides,\n            color,\n            (uint8)(block.timestamp % numberOfSides) + 1,  //non-secure random number\n            diceState.stationary,\n            msg.value,\n            0,\n            msg.sender,  //owner\n            address(0)\n        );\n\n        uint256 newDiceId = numDices++;\n        dices[newDiceId] = newDice; //commit to state variable\n        return newDiceId;   //return new diceId\n    }\n\n    //modifier to ensure a function is callable only by its owner\n    modifier ownerOnly(uint256 diceId) {\n        require(dices[diceId].owner == msg.sender);\n        _;\n    }\n\n    modifier validDiceId(uint256 diceId) {\n        require(diceId < numDices);\n        _;\n    }\n\n    //owner can roll a dice\n    function roll(uint256 diceId) external ownerOnly(diceId) validDiceId(diceId) {\n            dices[diceId].state = diceState.rolling;    //set state to rolling\n            dices[diceId].currentNumber = 0;    //number will become 0 while rolling\n            emit rolling(diceId);   //emit rolling event\n    }\n\n    function stopRoll(uint256 diceId) external ownerOnly(diceId) validDiceId(diceId) {\n            dices[diceId].state = diceState.stationary; //set state to stationary\n\n            //this is not a secure randomization\n            uint8 newNumber = (uint8)((block.timestamp*(diceId+1)) % dices[diceId].numberOfSides) + 1;\n            dices[diceId].currentNumber = newNumber;\n            if(dices[diceId].currentNumber == dices[diceId].numberOfSides){\n                dices[diceId].luckytimes++;\n                emit luckytimesEvent(diceId);\n            }\n            emit rolled(diceId, newNumber); //emit rolled\n    }\n\n    //transfer ownership to new owner\n    function transfer(uint256 diceId, address newOwner) external ownerOnly(diceId) validDiceId(diceId) {\n        dices[diceId].prevOwner = dices[diceId].owner;\n        dices[diceId].owner = newOwner;\n    }\n\n    //get number of sides of dice\n    function getDiceSides(uint256 diceId) public view validDiceId(diceId) returns (uint8) {\n        return dices[diceId].numberOfSides;\n    }\n\n    //get current dice number\n    function getDiceNumber(uint256 diceId) public view validDiceId(diceId) returns (uint8) {\n        return dices[diceId].currentNumber;\n    }\n\n    //get ether put in during creation\n    function getDiceValue(uint256 diceId) external view validDiceId(diceId) returns (uint256) {\n        return dices[diceId].creationValue;\n    }\n\n    function getOwner(uint256 diceId) external view validDiceId(diceId) returns (address) {\n        return dices[diceId].owner;\n    }\n\n    function getPrevOwner(uint256 diceId) external view validDiceId(diceId) returns(address) {\n        return dices[diceId].prevOwner;\n    }\n\n    function getLuckyTimes(uint256 diceId) public view validDiceId(diceId) returns(uint256){\n        return dices[diceId].luckytimes;\n    }\n\n    function destroyDice(uint256 diceId) payable public ownerOnly(diceId) validDiceId(diceId) {\n        //for security: \"check-effect-interact\" rule\n        uint256 value = dices[diceId].creationValue;\n        delete dices[diceId];\n        payable(msg.sender).transfer(value);\n    }\n\n}\n",
  "sourcePath": "C:\\Users\\dell\\Desktop\\lab4\\contracts\\Dice.sol",
  "compiler": {
    "name": "solc",
    "version": "0.8.12+commit.f00d7308.Emscripten.clang"
  },
  "schemaVersion": "3.4.6",
  "updatedAt": "2022-03-28T13:45:04.443Z",
  "networkType": "ethereum",
  "devdoc": {
    "kind": "dev",
    "methods": {},
    "version": 1
  },
  "userdoc": {
    "kind": "user",
    "methods": {},
    "version": 1
  }
}