{
  "contractName": "DiceMarket",
  "abi": [
    {
      "inputs": [
        {
          "internalType": "contract Dice",
          "name": "diceAddress",
          "type": "address"
        },
        {
          "internalType": "uint256",
          "name": "fee",
          "type": "uint256"
        }
      ],
      "stateMutability": "nonpayable",
      "type": "constructor"
    },
    {
      "inputs": [],
      "name": "comissionFee",
      "outputs": [
        {
          "internalType": "uint256",
          "name": "",
          "type": "uint256"
        }
      ],
      "stateMutability": "view",
      "type": "function",
      "constant": true
    },
    {
      "inputs": [
        {
          "internalType": "uint256",
          "name": "id",
          "type": "uint256"
        },
        {
          "internalType": "uint256",
          "name": "price",
          "type": "uint256"
        }
      ],
      "name": "list",
      "outputs": [],
      "stateMutability": "nonpayable",
      "type": "function"
    },
    {
      "inputs": [
        {
          "internalType": "uint256",
          "name": "id",
          "type": "uint256"
        }
      ],
      "name": "unlist",
      "outputs": [],
      "stateMutability": "nonpayable",
      "type": "function"
    },
    {
      "inputs": [
        {
          "internalType": "uint256",
          "name": "id",
          "type": "uint256"
        }
      ],
      "name": "checkPrice",
      "outputs": [
        {
          "internalType": "uint256",
          "name": "",
          "type": "uint256"
        }
      ],
      "stateMutability": "view",
      "type": "function",
      "constant": true
    },
    {
      "inputs": [
        {
          "internalType": "uint256",
          "name": "id",
          "type": "uint256"
        }
      ],
      "name": "buy",
      "outputs": [],
      "stateMutability": "payable",
      "type": "function",
      "payable": true
    },
    {
      "inputs": [],
      "name": "getContractOwner",
      "outputs": [
        {
          "internalType": "address",
          "name": "",
          "type": "address"
        }
      ],
      "stateMutability": "view",
      "type": "function",
      "constant": true
    },
    {
      "inputs": [],
      "name": "withDraw",
      "outputs": [],
      "stateMutability": "nonpayable",
      "type": "function"
    }
  ],
  "bytecode": "0x608060405233600260006101000a81548173ffffffffffffffffffffffffffffffffffffffff021916908373ffffffffffffffffffffffffffffffffffffffff16021790555034801561005157600080fd5b5060405162000ba938038062000ba98339818101604052810190610075919061016e565b816000806101000a81548173ffffffffffffffffffffffffffffffffffffffff021916908373ffffffffffffffffffffffffffffffffffffffff1602179055508060018190555050506101ae565b600080fd5b600073ffffffffffffffffffffffffffffffffffffffff82169050919050565b60006100f3826100c8565b9050919050565b6000610105826100e8565b9050919050565b610115816100fa565b811461012057600080fd5b50565b6000815190506101328161010c565b92915050565b6000819050919050565b61014b81610138565b811461015657600080fd5b50565b60008151905061016881610142565b92915050565b60008060408385031215610185576101846100c3565b5b600061019385828601610123565b92505060206101a485828601610159565b9150509250929050565b6109eb80620001be6000396000f3fe6080604052600436106100705760003560e01c806350fd73671161004e57806350fd7367146100f4578063741a75911461011d578063bf5a4dd314610148578063d96a094a1461017157610070565b80630fdb1c10146100755780631de7463a1461008c578063442890d5146100c9575b600080fd5b34801561008157600080fd5b5061008a61018d565b005b34801561009857600080fd5b506100b360048036038101906100ae9190610787565b61022d565b6040516100c091906107c3565b60405180910390f35b3480156100d557600080fd5b506100de61024a565b6040516100eb919061081f565b60405180910390f35b34801561010057600080fd5b5061011b6004803603810190610116919061083a565b610274565b005b34801561012957600080fd5b50610132610361565b60405161013f91906107c3565b60405180910390f35b34801561015457600080fd5b5061016f600480360381019061016a9190610787565b610367565b005b61018b60048036038101906101869190610787565b61057a565b005b600260009054906101000a900473ffffffffffffffffffffffffffffffffffffffff1673ffffffffffffffffffffffffffffffffffffffff163373ffffffffffffffffffffffffffffffffffffffff16141561022b573373ffffffffffffffffffffffffffffffffffffffff166108fc479081150290604051600060405180830381858888f19350505050158015610229573d6000803e3d6000fd5b505b565b600060036000838152602001908152602001600020549050919050565b6000600260009054906101000a900473ffffffffffffffffffffffffffffffffffffffff16905090565b60008054906101000a900473ffffffffffffffffffffffffffffffffffffffff1673ffffffffffffffffffffffffffffffffffffffff1663f2d03fcf836040518263ffffffff1660e01b81526004016102cd91906107c3565b602060405180830381865afa1580156102ea573d6000803e3d6000fd5b505050506040513d601f19601f8201168201806040525081019061030e91906108a6565b73ffffffffffffffffffffffffffffffffffffffff163373ffffffffffffffffffffffffffffffffffffffff161461034557600080fd5b8060036000848152602001908152602001600020819055505050565b60015481565b60008054906101000a900473ffffffffffffffffffffffffffffffffffffffff1673ffffffffffffffffffffffffffffffffffffffff1663f2d03fcf826040518263ffffffff1660e01b81526004016103c091906107c3565b602060405180830381865afa1580156103dd573d6000803e3d6000fd5b505050506040513d601f19601f8201168201806040525081019061040191906108a6565b73ffffffffffffffffffffffffffffffffffffffff163373ffffffffffffffffffffffffffffffffffffffff161461043857600080fd5b6000600360008381526020019081526020016000208190555060008054906101000a900473ffffffffffffffffffffffffffffffffffffffff1673ffffffffffffffffffffffffffffffffffffffff1663b7760c8f8260008054906101000a900473ffffffffffffffffffffffffffffffffffffffff1673ffffffffffffffffffffffffffffffffffffffff1663f2d03fcf856040518263ffffffff1660e01b81526004016104e791906107c3565b602060405180830381865afa158015610504573d6000803e3d6000fd5b505050506040513d601f19601f8201168201806040525081019061052891906108a6565b6040518363ffffffff1660e01b81526004016105459291906108d3565b600060405180830381600087803b15801561055f57600080fd5b505af1158015610573573d6000803e3d6000fd5b5050505050565b60006003600083815260200190815260200160002054141561059b57600080fd5b60015460036000838152602001908152602001600020546105bc919061092b565b3410156105c857600080fd5b60008060009054906101000a900473ffffffffffffffffffffffffffffffffffffffff1673ffffffffffffffffffffffffffffffffffffffff1663f2d03fcf836040518263ffffffff1660e01b815260040161062491906107c3565b602060405180830381865afa158015610641573d6000803e3d6000fd5b505050506040513d601f19601f8201168201806040525081019061066591906108a6565b90508073ffffffffffffffffffffffffffffffffffffffff166108fc6001543461068f9190610981565b9081150290604051600060405180830381858888f193505050501580156106ba573d6000803e3d6000fd5b5060008054906101000a900473ffffffffffffffffffffffffffffffffffffffff1673ffffffffffffffffffffffffffffffffffffffff1663b7760c8f83336040518363ffffffff1660e01b81526004016107169291906108d3565b600060405180830381600087803b15801561073057600080fd5b505af1158015610744573d6000803e3d6000fd5b505050505050565b600080fd5b6000819050919050565b61076481610751565b811461076f57600080fd5b50565b6000813590506107818161075b565b92915050565b60006020828403121561079d5761079c61074c565b5b60006107ab84828501610772565b91505092915050565b6107bd81610751565b82525050565b60006020820190506107d860008301846107b4565b92915050565b600073ffffffffffffffffffffffffffffffffffffffff82169050919050565b6000610809826107de565b9050919050565b610819816107fe565b82525050565b60006020820190506108346000830184610810565b92915050565b600080604083850312156108515761085061074c565b5b600061085f85828601610772565b925050602061087085828601610772565b9150509250929050565b610883816107fe565b811461088e57600080fd5b50565b6000815190506108a08161087a565b92915050565b6000602082840312156108bc576108bb61074c565b5b60006108ca84828501610891565b91505092915050565b60006040820190506108e860008301856107b4565b6108f56020830184610810565b9392505050565b7f4e487b7100000000000000000000000000000000000000000000000000000000600052601160045260246000fd5b600061093682610751565b915061094183610751565b9250827fffffffffffffffffffffffffffffffffffffffffffffffffffffffffffffffff03821115610976576109756108fc565b5b828201905092915050565b600061098c82610751565b915061099783610751565b9250828210156109aa576109a96108fc565b5b82820390509291505056fea2646970667358221220afe5e5fa1c5fcdad976723a2e3a5d4eec0b0ffacee0d677b075bcce6a0ab6f6764736f6c634300080c0033",
  "immutableReferences": {},
  "source": "//SPDX-License-Identifier: MIT\npragma solidity ^0.8.0;\nimport \"./Dice.sol\";\n\ncontract DiceMarket {\n\n    Dice diceContract;\n    uint256 public comissionFee;\n    address _owner = msg.sender;\n    mapping(uint256 => uint256) listPrice;\n     constructor(Dice diceAddress, uint256 fee) {\n        diceContract = diceAddress;\n        comissionFee = fee;\n    }\n\n\n    //list a dice for sale. Price needs to be >= value + fee\n    function list(uint256 id, uint256 price) public {\n       require(msg.sender == diceContract.getPrevOwner(id));\n       listPrice[id] = price;\n    }\n\n    function unlist(uint256 id) public {\n       require(msg.sender == diceContract.getPrevOwner(id));\n       listPrice[id] = 0;\n       diceContract.transfer(id, diceContract.getPrevOwner(id));\n  }\n\n    // get price of dice\n    function checkPrice(uint256 id) public view returns (uint256) {\n       return listPrice[id];\n }\n\n    // Buy the dice at the requested price\n    function buy(uint256 id) public payable {\n       require(listPrice[id] != 0); //is listed\n       require(msg.value >= (listPrice[id] + comissionFee)); //offerred price meets minimum ask\n\n       address payable recipient = payable(diceContract.getPrevOwner(id));\n       recipient.transfer(msg.value - comissionFee);    //transfer (price-comissionFee) to real owner\n       diceContract.transfer(id, msg.sender);\n    }\n\n    function getContractOwner() public view returns(address) {\n       return _owner;\n    }\n\n    function withDraw() public {\n        if(msg.sender == _owner)\n            payable(msg.sender).transfer(address(this).balance);\n    }\n}\n",
  "sourcePath": "C:\\Users\\dell\\Desktop\\lab4\\contracts\\DiceMarket.sol",
  "compiler": {
    "name": "solc",
    "version": "0.8.12+commit.f00d7308.Emscripten.clang"
  },
  "schemaVersion": "3.4.6",
  "updatedAt": "2022-03-28T13:45:04.463Z",
  "networkType": "ethereum",
  "devdoc": {
    "kind": "dev",
    "methods": {},
    "version": 1
  },
  "userdoc": {
    "kind": "user",
    "methods": {},
    "version": 1
  }
}